{
  "_format": "hh-sol-artifact-1",
  "contractName": "MyToken",
  "sourceName": "contracts/MyToken.sol",
  "abi": [
    {
      "inputs": [],
      "stateMutability": "nonpayable",
      "type": "constructor"
    },
    {
      "anonymous": false,
      "inputs": [
        {
          "indexed": true,
          "internalType": "address",
          "name": "owner",
          "type": "address"
        },
        {
          "indexed": true,
          "internalType": "address",
          "name": "spender",
          "type": "address"
        },
        {
          "indexed": false,
          "internalType": "uint256",
          "name": "value",
          "type": "uint256"
        }
      ],
      "name": "Approval",
      "type": "event"
    },
    {
      "anonymous": false,
      "inputs": [
        {
          "indexed": true,
          "internalType": "bytes32",
          "name": "role",
          "type": "bytes32"
        },
        {
          "indexed": true,
          "internalType": "bytes32",
          "name": "previousAdminRole",
          "type": "bytes32"
        },
        {
          "indexed": true,
          "internalType": "bytes32",
          "name": "newAdminRole",
          "type": "bytes32"
        }
      ],
      "name": "RoleAdminChanged",
      "type": "event"
    },
    {
      "anonymous": false,
      "inputs": [
        {
          "indexed": true,
          "internalType": "bytes32",
          "name": "role",
          "type": "bytes32"
        },
        {
          "indexed": true,
          "internalType": "address",
          "name": "account",
          "type": "address"
        },
        {
          "indexed": true,
          "internalType": "address",
          "name": "sender",
          "type": "address"
        }
      ],
      "name": "RoleGranted",
      "type": "event"
    },
    {
      "anonymous": false,
      "inputs": [
        {
          "indexed": true,
          "internalType": "bytes32",
          "name": "role",
          "type": "bytes32"
        },
        {
          "indexed": true,
          "internalType": "address",
          "name": "account",
          "type": "address"
        },
        {
          "indexed": true,
          "internalType": "address",
          "name": "sender",
          "type": "address"
        }
      ],
      "name": "RoleRevoked",
      "type": "event"
    },
    {
      "anonymous": false,
      "inputs": [
        {
          "indexed": true,
          "internalType": "address",
          "name": "from",
          "type": "address"
        },
        {
          "indexed": true,
          "internalType": "address",
          "name": "to",
          "type": "address"
        },
        {
          "indexed": false,
          "internalType": "uint256",
          "name": "value",
          "type": "uint256"
        }
      ],
      "name": "Transfer",
      "type": "event"
    },
    {
      "inputs": [],
      "name": "BURNER_ROLE",
      "outputs": [
        {
          "internalType": "bytes32",
          "name": "",
          "type": "bytes32"
        }
      ],
      "stateMutability": "view",
      "type": "function"
    },
    {
      "inputs": [],
      "name": "DEFAULT_ADMIN_ROLE",
      "outputs": [
        {
          "internalType": "bytes32",
          "name": "",
          "type": "bytes32"
        }
      ],
      "stateMutability": "view",
      "type": "function"
    },
    {
      "inputs": [],
      "name": "MINTER_ROLE",
      "outputs": [
        {
          "internalType": "bytes32",
          "name": "",
          "type": "bytes32"
        }
      ],
      "stateMutability": "view",
      "type": "function"
    },
    {
      "inputs": [],
      "name": "admin",
      "outputs": [
        {
          "internalType": "address",
          "name": "",
          "type": "address"
        }
      ],
      "stateMutability": "view",
      "type": "function"
    },
    {
      "inputs": [
        {
          "internalType": "address",
          "name": "owner",
          "type": "address"
        },
        {
          "internalType": "address",
          "name": "spender",
          "type": "address"
        }
      ],
      "name": "allowance",
      "outputs": [
        {
          "internalType": "uint256",
          "name": "",
          "type": "uint256"
        }
      ],
      "stateMutability": "view",
      "type": "function"
    },
    {
      "inputs": [
        {
          "internalType": "address",
          "name": "spender",
          "type": "address"
        },
        {
          "internalType": "uint256",
          "name": "amount",
          "type": "uint256"
        }
      ],
      "name": "approve",
      "outputs": [
        {
          "internalType": "bool",
          "name": "",
          "type": "bool"
        }
      ],
      "stateMutability": "nonpayable",
      "type": "function"
    },
    {
      "inputs": [
        {
          "internalType": "address",
          "name": "account",
          "type": "address"
        }
      ],
      "name": "assignBurner",
      "outputs": [],
      "stateMutability": "nonpayable",
      "type": "function"
    },
    {
      "inputs": [
        {
          "internalType": "address",
          "name": "account",
          "type": "address"
        }
      ],
      "name": "assignMinter",
      "outputs": [],
      "stateMutability": "nonpayable",
      "type": "function"
    },
    {
      "inputs": [
        {
          "internalType": "address",
          "name": "account",
          "type": "address"
        }
      ],
      "name": "balanceOf",
      "outputs": [
        {
          "internalType": "uint256",
          "name": "",
          "type": "uint256"
        }
      ],
      "stateMutability": "view",
      "type": "function"
    },
    {
      "inputs": [
        {
          "internalType": "address",
          "name": "from",
          "type": "address"
        },
        {
          "internalType": "uint256",
          "name": "amount",
          "type": "uint256"
        }
      ],
      "name": "burn",
      "outputs": [],
      "stateMutability": "nonpayable",
      "type": "function"
    },
    {
      "inputs": [],
      "name": "decimals",
      "outputs": [
        {
          "internalType": "uint8",
          "name": "",
          "type": "uint8"
        }
      ],
      "stateMutability": "view",
      "type": "function"
    },
    {
      "inputs": [
        {
          "internalType": "address",
          "name": "spender",
          "type": "address"
        },
        {
          "internalType": "uint256",
          "name": "subtractedValue",
          "type": "uint256"
        }
      ],
      "name": "decreaseAllowance",
      "outputs": [
        {
          "internalType": "bool",
          "name": "",
          "type": "bool"
        }
      ],
      "stateMutability": "nonpayable",
      "type": "function"
    },
    {
      "inputs": [
        {
          "internalType": "bytes32",
          "name": "role",
          "type": "bytes32"
        }
      ],
      "name": "getRoleAdmin",
      "outputs": [
        {
          "internalType": "bytes32",
          "name": "",
          "type": "bytes32"
        }
      ],
      "stateMutability": "view",
      "type": "function"
    },
    {
      "inputs": [
        {
          "internalType": "bytes32",
          "name": "role",
          "type": "bytes32"
        },
        {
          "internalType": "address",
          "name": "account",
          "type": "address"
        }
      ],
      "name": "grantRole",
      "outputs": [],
      "stateMutability": "nonpayable",
      "type": "function"
    },
    {
      "inputs": [
        {
          "internalType": "bytes32",
          "name": "role",
          "type": "bytes32"
        },
        {
          "internalType": "address",
          "name": "account",
          "type": "address"
        }
      ],
      "name": "hasRole",
      "outputs": [
        {
          "internalType": "bool",
          "name": "",
          "type": "bool"
        }
      ],
      "stateMutability": "view",
      "type": "function"
    },
    {
      "inputs": [
        {
          "internalType": "address",
          "name": "spender",
          "type": "address"
        },
        {
          "internalType": "uint256",
          "name": "addedValue",
          "type": "uint256"
        }
      ],
      "name": "increaseAllowance",
      "outputs": [
        {
          "internalType": "bool",
          "name": "",
          "type": "bool"
        }
      ],
      "stateMutability": "nonpayable",
      "type": "function"
    },
    {
      "inputs": [
        {
          "internalType": "address",
          "name": "to",
          "type": "address"
        },
        {
          "internalType": "uint256",
          "name": "amount",
          "type": "uint256"
        }
      ],
      "name": "mint",
      "outputs": [],
      "stateMutability": "nonpayable",
      "type": "function"
    },
    {
      "inputs": [],
      "name": "name",
      "outputs": [
        {
          "internalType": "string",
          "name": "",
          "type": "string"
        }
      ],
      "stateMutability": "view",
      "type": "function"
    },
    {
      "inputs": [
        {
          "internalType": "bytes32",
          "name": "role",
          "type": "bytes32"
        },
        {
          "internalType": "address",
          "name": "account",
          "type": "address"
        }
      ],
      "name": "renounceRole",
      "outputs": [],
      "stateMutability": "nonpayable",
      "type": "function"
    },
    {
      "inputs": [
        {
          "internalType": "bytes32",
          "name": "role",
          "type": "bytes32"
        },
        {
          "internalType": "address",
          "name": "account",
          "type": "address"
        }
      ],
      "name": "revokeRole",
      "outputs": [],
      "stateMutability": "nonpayable",
      "type": "function"
    },
    {
      "inputs": [
        {
          "internalType": "bytes4",
          "name": "interfaceId",
          "type": "bytes4"
        }
      ],
      "name": "supportsInterface",
      "outputs": [
        {
          "internalType": "bool",
          "name": "",
          "type": "bool"
        }
      ],
      "stateMutability": "view",
      "type": "function"
    },
    {
      "inputs": [],
      "name": "symbol",
      "outputs": [
        {
          "internalType": "string",
          "name": "",
          "type": "string"
        }
      ],
      "stateMutability": "view",
      "type": "function"
    },
    {
      "inputs": [],
      "name": "totalSupply",
      "outputs": [
        {
          "internalType": "uint256",
          "name": "",
          "type": "uint256"
        }
      ],
      "stateMutability": "view",
      "type": "function"
    },
    {
      "inputs": [
        {
          "internalType": "address",
          "name": "to",
          "type": "address"
        },
        {
          "internalType": "uint256",
          "name": "amount",
          "type": "uint256"
        }
      ],
      "name": "transfer",
      "outputs": [
        {
          "internalType": "bool",
          "name": "",
          "type": "bool"
        }
      ],
      "stateMutability": "nonpayable",
      "type": "function"
    },
    {
      "inputs": [
        {
          "internalType": "address",
          "name": "from",
          "type": "address"
        },
        {
          "internalType": "address",
          "name": "to",
          "type": "address"
        },
        {
          "internalType": "uint256",
          "name": "amount",
          "type": "uint256"
        }
      ],
      "name": "transferFrom",
      "outputs": [
        {
          "internalType": "bool",
          "name": "",
          "type": "bool"
        }
      ],
      "stateMutability": "nonpayable",
      "type": "function"
    }
  ],
  "bytecode": "0x60806040523480156200001157600080fd5b506040518060400160405280600d81526020017f4d79437573746f6d546f6b656e000000000000000000000000000000000000008152506040518060400160405280600381526020017f4d4354000000000000000000000000000000000000000000000000000000000081525081600390816200008f9190620004df565b508060049081620000a19190620004df565b50505033600660006101000a81548173ffffffffffffffffffffffffffffffffffffffff021916908373ffffffffffffffffffffffffffffffffffffffff160217905550620000fa6000801b336200010060201b60201c565b620005c6565b620001128282620001f260201b60201c565b620001ee5760016005600084815260200190815260200160002060000160008373ffffffffffffffffffffffffffffffffffffffff1673ffffffffffffffffffffffffffffffffffffffff16815260200190815260200160002060006101000a81548160ff021916908315150217905550620001936200025d60201b60201c565b73ffffffffffffffffffffffffffffffffffffffff168173ffffffffffffffffffffffffffffffffffffffff16837f2f8788117e7eff1d82e926ec794901d17c78024a50270940304540a733656f0d60405160405180910390a45b5050565b60006005600084815260200190815260200160002060000160008373ffffffffffffffffffffffffffffffffffffffff1673ffffffffffffffffffffffffffffffffffffffff16815260200190815260200160002060009054906101000a900460ff16905092915050565b600033905090565b600081519050919050565b7f4e487b7100000000000000000000000000000000000000000000000000000000600052604160045260246000fd5b7f4e487b7100000000000000000000000000000000000000000000000000000000600052602260045260246000fd5b60006002820490506001821680620002e757607f821691505b602082108103620002fd57620002fc6200029f565b5b50919050565b60008190508160005260206000209050919050565b60006020601f8301049050919050565b600082821b905092915050565b600060088302620003677fffffffffffffffffffffffffffffffffffffffffffffffffffffffffffffffff8262000328565b62000373868362000328565b95508019841693508086168417925050509392505050565b6000819050919050565b6000819050919050565b6000620003c0620003ba620003b4846200038b565b62000395565b6200038b565b9050919050565b6000819050919050565b620003dc836200039f565b620003f4620003eb82620003c7565b84845462000335565b825550505050565b600090565b6200040b620003fc565b62000418818484620003d1565b505050565b5b8181101562000440576200043460008262000401565b6001810190506200041e565b5050565b601f8211156200048f57620004598162000303565b620004648462000318565b8101602085101562000474578190505b6200048c620004838562000318565b8301826200041d565b50505b505050565b600082821c905092915050565b6000620004b46000198460080262000494565b1980831691505092915050565b6000620004cf8383620004a1565b9150826002028217905092915050565b620004ea8262000265565b67ffffffffffffffff81111562000506576200050562000270565b5b620005128254620002ce565b6200051f82828562000444565b600060209050601f83116001811462000557576000841562000542578287015190505b6200054e8582620004c1565b865550620005be565b601f198416620005678662000303565b60005b8281101562000591578489015182556001820191506020850194506020810190506200056a565b86831015620005b15784890151620005ad601f891682620004a1565b8355505b6001600288020188555050505b505050505050565b6128cb80620005d66000396000f3fe608060405234801561001057600080fd5b50600436106101735760003560e01c80636004e140116100de578063a217fddf11610097578063d539139311610071578063d539139314610484578063d547741f146104a2578063dd62ed3e146104be578063f851a440146104ee57610173565b8063a217fddf14610406578063a457c2d714610424578063a9059cbb1461045457610173565b80636004e1401461033457806370a082311461035057806391d148541461038057806395d89b41146103b057806397c08da6146103ce5780639dc29fac146103ea57610173565b8063282c51f311610130578063282c51f3146102745780632f2ff15d14610292578063313ce567146102ae57806336568abe146102cc57806339509351146102e857806340c10f191461031857610173565b806301ffc9a71461017857806306fdde03146101a8578063095ea7b3146101c657806318160ddd146101f657806323b872dd14610214578063248a9ca314610244575b600080fd5b610192600480360381019061018d9190611982565b61050c565b60405161019f91906119ca565b60405180910390f35b6101b0610586565b6040516101bd9190611a75565b60405180910390f35b6101e060048036038101906101db9190611b2b565b610618565b6040516101ed91906119ca565b60405180910390f35b6101fe61063b565b60405161020b9190611b7a565b60405180910390f35b61022e60048036038101906102299190611b95565b610645565b60405161023b91906119ca565b60405180910390f35b61025e60048036038101906102599190611c1e565b610674565b60405161026b9190611c5a565b60405180910390f35b61027c610694565b6040516102899190611c5a565b60405180910390f35b6102ac60048036038101906102a79190611c75565b6106b8565b005b6102b66106d9565b6040516102c39190611cd1565b60405180910390f35b6102e660048036038101906102e19190611c75565b6106e2565b005b61030260048036038101906102fd9190611b2b565b610765565b60405161030f91906119ca565b60405180910390f35b610332600480360381019061032d9190611b2b565b61079c565b005b61034e60048036038101906103499190611cec565b6107d5565b005b61036a60048036038101906103659190611cec565b610810565b6040516103779190611b7a565b60405180910390f35b61039a60048036038101906103959190611c75565b610858565b6040516103a791906119ca565b60405180910390f35b6103b86108c3565b6040516103c59190611a75565b60405180910390f35b6103e860048036038101906103e39190611cec565b610955565b005b61040460048036038101906103ff9190611b2b565b610990565b005b61040e6109c9565b60405161041b9190611c5a565b60405180910390f35b61043e60048036038101906104399190611b2b565b6109d0565b60405161044b91906119ca565b60405180910390f35b61046e60048036038101906104699190611b2b565b610a47565b60405161047b91906119ca565b60405180910390f35b61048c610a6a565b6040516104999190611c5a565b60405180910390f35b6104bc60048036038101906104b79190611c75565b610a8e565b005b6104d860048036038101906104d39190611d19565b610aaf565b6040516104e59190611b7a565b60405180910390f35b6104f6610b36565b6040516105039190611d68565b60405180910390f35b60007f7965db0b000000000000000000000000000000000000000000000000000000007bffffffffffffffffffffffffffffffffffffffffffffffffffffffff1916827bffffffffffffffffffffffffffffffffffffffffffffffffffffffff1916148061057f575061057e82610b5c565b5b9050919050565b60606003805461059590611db2565b80601f01602080910402602001604051908101604052809291908181526020018280546105c190611db2565b801561060e5780601f106105e35761010080835404028352916020019161060e565b820191906000526020600020905b8154815290600101906020018083116105f157829003601f168201915b5050505050905090565b600080610623610bc6565b9050610630818585610bce565b600191505092915050565b6000600254905090565b600080610650610bc6565b905061065d858285610d97565b610668858585610e23565b60019150509392505050565b600060056000838152602001908152602001600020600101549050919050565b7f9667e80708b6eeeb0053fa0cca44e028ff548e2a9f029edfeac87c118b08b7c881565b6106c182610674565b6106ca81610ebd565b6106d48383610ed1565b505050565b60006012905090565b6106ea610bc6565b73ffffffffffffffffffffffffffffffffffffffff168173ffffffffffffffffffffffffffffffffffffffff1614610757576040517f08c379a000000000000000000000000000000000000000000000000000000000815260040161074e90611e55565b60405180910390fd5b6107618282610fb2565b5050565b600080610770610bc6565b90506107918185856107828589610aaf565b61078c9190611ea4565b610bce565b600191505092915050565b7ff0887ba65ee2024ea881d91b74c2450ef19e1557f03bed3ea9f16b037cbe2dc96107c681610ebd565b6107d08383611094565b505050565b6000801b6107e281610ebd565b61080c7ff0887ba65ee2024ea881d91b74c2450ef19e1557f03bed3ea9f16b037cbe2dc983610ed1565b5050565b60008060008373ffffffffffffffffffffffffffffffffffffffff1673ffffffffffffffffffffffffffffffffffffffff168152602001908152602001600020549050919050565b60006005600084815260200190815260200160002060000160008373ffffffffffffffffffffffffffffffffffffffff1673ffffffffffffffffffffffffffffffffffffffff16815260200190815260200160002060009054906101000a900460ff16905092915050565b6060600480546108d290611db2565b80601f01602080910402602001604051908101604052809291908181526020018280546108fe90611db2565b801561094b5780601f106109205761010080835404028352916020019161094b565b820191906000526020600020905b81548152906001019060200180831161092e57829003601f168201915b5050505050905090565b6000801b61096281610ebd565b61098c7f9667e80708b6eeeb0053fa0cca44e028ff548e2a9f029edfeac87c118b08b7c883610ed1565b5050565b7f9667e80708b6eeeb0053fa0cca44e028ff548e2a9f029edfeac87c118b08b7c86109ba81610ebd565b6109c483836111ea565b505050565b6000801b81565b6000806109db610bc6565b905060006109e98286610aaf565b905083811015610a2e576040517f08c379a0000000000000000000000000000000000000000000000000000000008152600401610a2590611f4a565b60405180910390fd5b610a3b8286868403610bce565b60019250505092915050565b600080610a52610bc6565b9050610a5f818585610e23565b600191505092915050565b7ff0887ba65ee2024ea881d91b74c2450ef19e1557f03bed3ea9f16b037cbe2dc981565b610a9782610674565b610aa081610ebd565b610aaa8383610fb2565b505050565b6000600160008473ffffffffffffffffffffffffffffffffffffffff1673ffffffffffffffffffffffffffffffffffffffff16815260200190815260200160002060008373ffffffffffffffffffffffffffffffffffffffff1673ffffffffffffffffffffffffffffffffffffffff16815260200190815260200160002054905092915050565b600660009054906101000a900473ffffffffffffffffffffffffffffffffffffffff1681565b60007f01ffc9a7000000000000000000000000000000000000000000000000000000007bffffffffffffffffffffffffffffffffffffffffffffffffffffffff1916827bffffffffffffffffffffffffffffffffffffffffffffffffffffffff1916149050919050565b600033905090565b600073ffffffffffffffffffffffffffffffffffffffff168373ffffffffffffffffffffffffffffffffffffffff1603610c3d576040517f08c379a0000000000000000000000000000000000000000000000000000000008152600401610c3490611fdc565b60405180910390fd5b600073ffffffffffffffffffffffffffffffffffffffff168273ffffffffffffffffffffffffffffffffffffffff1603610cac576040517f08c379a0000000000000000000000000000000000000000000000000000000008152600401610ca39061206e565b60405180910390fd5b80600160008573ffffffffffffffffffffffffffffffffffffffff1673ffffffffffffffffffffffffffffffffffffffff16815260200190815260200160002060008473ffffffffffffffffffffffffffffffffffffffff1673ffffffffffffffffffffffffffffffffffffffff168152602001908152602001600020819055508173ffffffffffffffffffffffffffffffffffffffff168373ffffffffffffffffffffffffffffffffffffffff167f8c5be1e5ebec7d5bd14f71427d1e84f3dd0314c0f7b2291e5b200ac8c7c3b92583604051610d8a9190611b7a565b60405180910390a3505050565b6000610da38484610aaf565b90507fffffffffffffffffffffffffffffffffffffffffffffffffffffffffffffffff8114610e1d5781811015610e0f576040517f08c379a0000000000000000000000000000000000000000000000000000000008152600401610e06906120da565b60405180910390fd5b610e1c8484848403610bce565b5b50505050565b610e2b6106d9565b600a610e37919061222d565b620f4240610e459190612278565b610e4d61063b565b1115610ead5760006064600183610e649190612278565b610e6e91906122e9565b9050610e9d84600660009054906101000a900473ffffffffffffffffffffffffffffffffffffffff16836113b7565b8082610ea9919061231a565b9150505b610eb88383836113b7565b505050565b610ece81610ec9610bc6565b61162d565b50565b610edb8282610858565b610fae5760016005600084815260200190815260200160002060000160008373ffffffffffffffffffffffffffffffffffffffff1673ffffffffffffffffffffffffffffffffffffffff16815260200190815260200160002060006101000a81548160ff021916908315150217905550610f53610bc6565b73ffffffffffffffffffffffffffffffffffffffff168173ffffffffffffffffffffffffffffffffffffffff16837f2f8788117e7eff1d82e926ec794901d17c78024a50270940304540a733656f0d60405160405180910390a45b5050565b610fbc8282610858565b156110905760006005600084815260200190815260200160002060000160008373ffffffffffffffffffffffffffffffffffffffff1673ffffffffffffffffffffffffffffffffffffffff16815260200190815260200160002060006101000a81548160ff021916908315150217905550611035610bc6565b73ffffffffffffffffffffffffffffffffffffffff168173ffffffffffffffffffffffffffffffffffffffff16837ff6391f5c32d9c69d2a47ea670b442974b53935d1edc7fd64eb21e047a839171b60405160405180910390a45b5050565b600073ffffffffffffffffffffffffffffffffffffffff168273ffffffffffffffffffffffffffffffffffffffff1603611103576040517f08c379a00000000000000000000000000000000000000000000000000000000081526004016110fa9061239a565b60405180910390fd5b61110f600083836116b2565b80600260008282546111219190611ea4565b92505081905550806000808473ffffffffffffffffffffffffffffffffffffffff1673ffffffffffffffffffffffffffffffffffffffff168152602001908152602001600020600082825401925050819055508173ffffffffffffffffffffffffffffffffffffffff16600073ffffffffffffffffffffffffffffffffffffffff167fddf252ad1be2c89b69c2b068fc378daa952ba7f163c4a11628f55a4df523b3ef836040516111d29190611b7a565b60405180910390a36111e6600083836116b7565b5050565b600073ffffffffffffffffffffffffffffffffffffffff168273ffffffffffffffffffffffffffffffffffffffff1603611259576040517f08c379a00000000000000000000000000000000000000000000000000000000081526004016112509061242c565b60405180910390fd5b611265826000836116b2565b60008060008473ffffffffffffffffffffffffffffffffffffffff1673ffffffffffffffffffffffffffffffffffffffff168152602001908152602001600020549050818110156112eb576040517f08c379a00000000000000000000000000000000000000000000000000000000081526004016112e2906124be565b60405180910390fd5b8181036000808573ffffffffffffffffffffffffffffffffffffffff1673ffffffffffffffffffffffffffffffffffffffff1681526020019081526020016000208190555081600260008282540392505081905550600073ffffffffffffffffffffffffffffffffffffffff168373ffffffffffffffffffffffffffffffffffffffff167fddf252ad1be2c89b69c2b068fc378daa952ba7f163c4a11628f55a4df523b3ef8460405161139e9190611b7a565b60405180910390a36113b2836000846116b7565b505050565b600073ffffffffffffffffffffffffffffffffffffffff168373ffffffffffffffffffffffffffffffffffffffff1603611426576040517f08c379a000000000000000000000000000000000000000000000000000000000815260040161141d90612550565b60405180910390fd5b600073ffffffffffffffffffffffffffffffffffffffff168273ffffffffffffffffffffffffffffffffffffffff1603611495576040517f08c379a000000000000000000000000000000000000000000000000000000000815260040161148c906125e2565b60405180910390fd5b6114a08383836116b2565b60008060008573ffffffffffffffffffffffffffffffffffffffff1673ffffffffffffffffffffffffffffffffffffffff16815260200190815260200160002054905081811015611526576040517f08c379a000000000000000000000000000000000000000000000000000000000815260040161151d90612674565b60405180910390fd5b8181036000808673ffffffffffffffffffffffffffffffffffffffff1673ffffffffffffffffffffffffffffffffffffffff16815260200190815260200160002081905550816000808573ffffffffffffffffffffffffffffffffffffffff1673ffffffffffffffffffffffffffffffffffffffff168152602001908152602001600020600082825401925050819055508273ffffffffffffffffffffffffffffffffffffffff168473ffffffffffffffffffffffffffffffffffffffff167fddf252ad1be2c89b69c2b068fc378daa952ba7f163c4a11628f55a4df523b3ef846040516116149190611b7a565b60405180910390a36116278484846116b7565b50505050565b6116378282610858565b6116ae57611644816116bc565b6116528360001c60206116e9565b604051602001611663929190612768565b6040516020818303038152906040526040517f08c379a00000000000000000000000000000000000000000000000000000000081526004016116a59190611a75565b60405180910390fd5b5050565b505050565b505050565b60606116e28273ffffffffffffffffffffffffffffffffffffffff16601460ff166116e9565b9050919050565b6060600060028360026116fc9190612278565b6117069190611ea4565b67ffffffffffffffff81111561171f5761171e6127a2565b5b6040519080825280601f01601f1916602001820160405280156117515781602001600182028036833780820191505090505b5090507f300000000000000000000000000000000000000000000000000000000000000081600081518110611789576117886127d1565b5b60200101907effffffffffffffffffffffffffffffffffffffffffffffffffffffffffffff1916908160001a9053507f7800000000000000000000000000000000000000000000000000000000000000816001815181106117ed576117ec6127d1565b5b60200101907effffffffffffffffffffffffffffffffffffffffffffffffffffffffffffff1916908160001a9053506000600184600261182d9190612278565b6118379190611ea4565b90505b60018111156118d7577f3031323334353637383961626364656600000000000000000000000000000000600f861660108110611879576118786127d1565b5b1a60f81b8282815181106118905761188f6127d1565b5b60200101907effffffffffffffffffffffffffffffffffffffffffffffffffffffffffffff1916908160001a905350600485901c9450806118d090612800565b905061183a565b506000841461191b576040517f08c379a000000000000000000000000000000000000000000000000000000000815260040161191290612875565b60405180910390fd5b8091505092915050565b600080fd5b60007fffffffff0000000000000000000000000000000000000000000000000000000082169050919050565b61195f8161192a565b811461196a57600080fd5b50565b60008135905061197c81611956565b92915050565b60006020828403121561199857611997611925565b5b60006119a68482850161196d565b91505092915050565b60008115159050919050565b6119c4816119af565b82525050565b60006020820190506119df60008301846119bb565b92915050565b600081519050919050565b600082825260208201905092915050565b60005b83811015611a1f578082015181840152602081019050611a04565b60008484015250505050565b6000601f19601f8301169050919050565b6000611a47826119e5565b611a5181856119f0565b9350611a61818560208601611a01565b611a6a81611a2b565b840191505092915050565b60006020820190508181036000830152611a8f8184611a3c565b905092915050565b600073ffffffffffffffffffffffffffffffffffffffff82169050919050565b6000611ac282611a97565b9050919050565b611ad281611ab7565b8114611add57600080fd5b50565b600081359050611aef81611ac9565b92915050565b6000819050919050565b611b0881611af5565b8114611b1357600080fd5b50565b600081359050611b2581611aff565b92915050565b60008060408385031215611b4257611b41611925565b5b6000611b5085828601611ae0565b9250506020611b6185828601611b16565b9150509250929050565b611b7481611af5565b82525050565b6000602082019050611b8f6000830184611b6b565b92915050565b600080600060608486031215611bae57611bad611925565b5b6000611bbc86828701611ae0565b9350506020611bcd86828701611ae0565b9250506040611bde86828701611b16565b9150509250925092565b6000819050919050565b611bfb81611be8565b8114611c0657600080fd5b50565b600081359050611c1881611bf2565b92915050565b600060208284031215611c3457611c33611925565b5b6000611c4284828501611c09565b91505092915050565b611c5481611be8565b82525050565b6000602082019050611c6f6000830184611c4b565b92915050565b60008060408385031215611c8c57611c8b611925565b5b6000611c9a85828601611c09565b9250506020611cab85828601611ae0565b9150509250929050565b600060ff82169050919050565b611ccb81611cb5565b82525050565b6000602082019050611ce66000830184611cc2565b92915050565b600060208284031215611d0257611d01611925565b5b6000611d1084828501611ae0565b91505092915050565b60008060408385031215611d3057611d2f611925565b5b6000611d3e85828601611ae0565b9250506020611d4f85828601611ae0565b9150509250929050565b611d6281611ab7565b82525050565b6000602082019050611d7d6000830184611d59565b92915050565b7f4e487b7100000000000000000000000000000000000000000000000000000000600052602260045260246000fd5b60006002820490506001821680611dca57607f821691505b602082108103611ddd57611ddc611d83565b5b50919050565b7f416363657373436f6e74726f6c3a2063616e206f6e6c792072656e6f756e636560008201527f20726f6c657320666f722073656c660000000000000000000000000000000000602082015250565b6000611e3f602f836119f0565b9150611e4a82611de3565b604082019050919050565b60006020820190508181036000830152611e6e81611e32565b9050919050565b7f4e487b7100000000000000000000000000000000000000000000000000000000600052601160045260246000fd5b6000611eaf82611af5565b9150611eba83611af5565b9250828201905080821115611ed257611ed1611e75565b5b92915050565b7f45524332303a2064656372656173656420616c6c6f77616e63652062656c6f7760008201527f207a65726f000000000000000000000000000000000000000000000000000000602082015250565b6000611f346025836119f0565b9150611f3f82611ed8565b604082019050919050565b60006020820190508181036000830152611f6381611f27565b9050919050565b7f45524332303a20617070726f76652066726f6d20746865207a65726f2061646460008201527f7265737300000000000000000000000000000000000000000000000000000000602082015250565b6000611fc66024836119f0565b9150611fd182611f6a565b604082019050919050565b60006020820190508181036000830152611ff581611fb9565b9050919050565b7f45524332303a20617070726f766520746f20746865207a65726f20616464726560008201527f7373000000000000000000000000000000000000000000000000000000000000602082015250565b60006120586022836119f0565b915061206382611ffc565b604082019050919050565b600060208201905081810360008301526120878161204b565b9050919050565b7f45524332303a20696e73756666696369656e7420616c6c6f77616e6365000000600082015250565b60006120c4601d836119f0565b91506120cf8261208e565b602082019050919050565b600060208201905081810360008301526120f3816120b7565b9050919050565b60008160011c9050919050565b6000808291508390505b60018511156121515780860481111561212d5761212c611e75565b5b600185161561213c5780820291505b808102905061214a856120fa565b9450612111565b94509492505050565b60008261216a5760019050612226565b816121785760009050612226565b816001811461218e5760028114612198576121c7565b6001915050612226565b60ff8411156121aa576121a9611e75565b5b8360020a9150848211156121c1576121c0611e75565b5b50612226565b5060208310610133831016604e8410600b84101617156121fc5782820a9050838111156121f7576121f6611e75565b5b612226565b6122098484846001612107565b925090508184048111156122205761221f611e75565b5b81810290505b9392505050565b600061223882611af5565b915061224383611cb5565b92506122707fffffffffffffffffffffffffffffffffffffffffffffffffffffffffffffffff848461215a565b905092915050565b600061228382611af5565b915061228e83611af5565b925082820261229c81611af5565b915082820484148315176122b3576122b2611e75565b5b5092915050565b7f4e487b7100000000000000000000000000000000000000000000000000000000600052601260045260246000fd5b60006122f482611af5565b91506122ff83611af5565b92508261230f5761230e6122ba565b5b828204905092915050565b600061232582611af5565b915061233083611af5565b925082820390508181111561234857612347611e75565b5b92915050565b7f45524332303a206d696e7420746f20746865207a65726f206164647265737300600082015250565b6000612384601f836119f0565b915061238f8261234e565b602082019050919050565b600060208201905081810360008301526123b381612377565b9050919050565b7f45524332303a206275726e2066726f6d20746865207a65726f2061646472657360008201527f7300000000000000000000000000000000000000000000000000000000000000602082015250565b60006124166021836119f0565b9150612421826123ba565b604082019050919050565b6000602082019050818103600083015261244581612409565b9050919050565b7f45524332303a206275726e20616d6f756e7420657863656564732062616c616e60008201527f6365000000000000000000000000000000000000000000000000000000000000602082015250565b60006124a86022836119f0565b91506124b38261244c565b604082019050919050565b600060208201905081810360008301526124d78161249b565b9050919050565b7f45524332303a207472616e736665722066726f6d20746865207a65726f20616460008201527f6472657373000000000000000000000000000000000000000000000000000000602082015250565b600061253a6025836119f0565b9150612545826124de565b604082019050919050565b600060208201905081810360008301526125698161252d565b9050919050565b7f45524332303a207472616e7366657220746f20746865207a65726f206164647260008201527f6573730000000000000000000000000000000000000000000000000000000000602082015250565b60006125cc6023836119f0565b91506125d782612570565b604082019050919050565b600060208201905081810360008301526125fb816125bf565b9050919050565b7f45524332303a207472616e7366657220616d6f756e742065786365656473206260008201527f616c616e63650000000000000000000000000000000000000000000000000000602082015250565b600061265e6026836119f0565b915061266982612602565b604082019050919050565b6000602082019050818103600083015261268d81612651565b9050919050565b600081905092915050565b7f416363657373436f6e74726f6c3a206163636f756e7420000000000000000000600082015250565b60006126d5601783612694565b91506126e08261269f565b601782019050919050565b60006126f6826119e5565b6127008185612694565b9350612710818560208601611a01565b80840191505092915050565b7f206973206d697373696e6720726f6c6520000000000000000000000000000000600082015250565b6000612752601183612694565b915061275d8261271c565b601182019050919050565b6000612773826126c8565b915061277f82856126eb565b915061278a82612745565b915061279682846126eb565b91508190509392505050565b7f4e487b7100000000000000000000000000000000000000000000000000000000600052604160045260246000fd5b7f4e487b7100000000000000000000000000000000000000000000000000000000600052603260045260246000fd5b600061280b82611af5565b91506000820361281e5761281d611e75565b5b600182039050919050565b7f537472696e67733a20686578206c656e67746820696e73756666696369656e74600082015250565b600061285f6020836119f0565b915061286a82612829565b602082019050919050565b6000602082019050818103600083015261288e81612852565b905091905056fea264697066735822122065664d9055c937af49d81d50f282efd1343452379f46458f1c0c12e2c6a93d4764736f6c63430008140033",
  "linkReferences": {},
  "deployedLinkReferences": {}
}